{
  "address": "0xDc64a140Aa3E981100a9becA4E685f962f0cF6C9",
  "abi": [
    {
      "inputs": [],
      "name": "createSimpleStorageContract",
      "outputs": [],
      "stateMutability": "nonpayable",
      "type": "function"
    },
    {
      "inputs": [
        {
          "internalType": "uint256",
          "name": "_simpleStorageIndex",
          "type": "uint256"
        }
      ],
      "name": "sfGet",
      "outputs": [
        {
          "internalType": "uint256",
          "name": "",
          "type": "uint256"
        }
      ],
      "stateMutability": "view",
      "type": "function"
    },
    {
      "inputs": [
        {
          "internalType": "uint256",
          "name": "_simpleStorageIndex",
          "type": "uint256"
        },
        {
          "internalType": "uint256",
          "name": "_simpleStorageNumber",
          "type": "uint256"
        }
      ],
      "name": "sfStore",
      "outputs": [],
      "stateMutability": "nonpayable",
      "type": "function"
    },
    {
      "inputs": [
        {
          "internalType": "uint256",
          "name": "",
          "type": "uint256"
        }
      ],
      "name": "simpleStorageArray",
      "outputs": [
        {
          "internalType": "contract ExtraStorage",
          "name": "",
          "type": "address"
        }
      ],
      "stateMutability": "view",
      "type": "function"
    }
  ],
  "transactionHash": "0x623ba9687999b41d495860edfd41f4b2704a4b45663cb5b1c19c984c400095a3",
  "args": [],
  "numDeployments": 1,
  "solcInputHash": "a1f70fd6d1a4ad0d5304b7fca148a1d6",
  "bytecode": "0x608060405234801561001057600080fd5b50610d5c806100206000396000f3fe608060405234801561001057600080fd5b506004361061004c5760003560e01c80631563700f146100515780631dda65411461006d57806364591bf114610077578063c5f19c20146100a7575b600080fd5b61006b60048036038101906100669190610362565b6100d7565b005b610075610184565b005b610091600480360381019061008c91906103a2565b610217565b60405161009e919061044e565b60405180910390f35b6100c160048036038101906100bc91906103a2565b610256565b6040516100ce9190610478565b60405180910390f35b600082815481106100eb576100ea610493565b5b9060005260206000200160009054906101000a900473ffffffffffffffffffffffffffffffffffffffff1673ffffffffffffffffffffffffffffffffffffffff16636057361d826040518263ffffffff1660e01b815260040161014e9190610478565b600060405180830381600087803b15801561016857600080fd5b505af115801561017c573d6000803e3d6000fd5b505050505050565b60006040516101929061031a565b604051809103906000f0801580156101ae573d6000803e3d6000fd5b5090506000819080600181540180825580915050600190039060005260206000200160009091909190916101000a81548173ffffffffffffffffffffffffffffffffffffffff021916908373ffffffffffffffffffffffffffffffffffffffff16021790555050565b6000818154811061022757600080fd5b906000526020600020016000915054906101000a900473ffffffffffffffffffffffffffffffffffffffff1681565b600080828154811061026b5761026a610493565b5b9060005260206000200160009054906101000a900473ffffffffffffffffffffffffffffffffffffffff1673ffffffffffffffffffffffffffffffffffffffff16632e64cec16040518163ffffffff1660e01b815260040160206040518083038186803b1580156102db57600080fd5b505afa1580156102ef573d6000803e3d6000fd5b505050506040513d601f19601f8201168201806040525081019061031391906104d7565b9050919050565b6108228061050583390190565b600080fd5b6000819050919050565b61033f8161032c565b811461034a57600080fd5b50565b60008135905061035c81610336565b92915050565b6000806040838503121561037957610378610327565b5b60006103878582860161034d565b92505060206103988582860161034d565b9150509250929050565b6000602082840312156103b8576103b7610327565b5b60006103c68482850161034d565b91505092915050565b600073ffffffffffffffffffffffffffffffffffffffff82169050919050565b6000819050919050565b600061041461040f61040a846103cf565b6103ef565b6103cf565b9050919050565b6000610426826103f9565b9050919050565b60006104388261041b565b9050919050565b6104488161042d565b82525050565b6000602082019050610463600083018461043f565b92915050565b6104728161032c565b82525050565b600060208201905061048d6000830184610469565b92915050565b7f4e487b7100000000000000000000000000000000000000000000000000000000600052603260045260246000fd5b6000815190506104d181610336565b92915050565b6000602082840312156104ed576104ec610327565b5b60006104fb848285016104c2565b9150509291505056fe608060405234801561001057600080fd5b50610802806100206000396000f3fe608060405234801561001057600080fd5b50600436106100575760003560e01c80632e64cec11461005c5780636057361d1461007a5780636f760f41146100965780638bab8dd5146100b25780639e7a13ad146100e2575b600080fd5b610064610113565b6040516100719190610368565b60405180910390f35b610094600480360381019061008f91906103c3565b61011c565b005b6100b060048036038101906100ab9190610536565b610132565b005b6100cc60048036038101906100c79190610592565b6101c2565b6040516100d99190610368565b60405180910390f35b6100fc60048036038101906100f791906103c3565b6101f0565b60405161010a929190610663565b60405180910390f35b60008054905090565b60058161012991906106c2565b60008190555050565b600160405180604001604052808381526020018481525090806001815401808255809150506001900390600052602060002090600202016000909190919091506000820151816000015560208201518160010190805190602001906101989291906102ac565b505050806002836040516101ac9190610754565b9081526020016040518091039020819055505050565b6002818051602081018201805184825260208301602085012081835280955050505050506000915090505481565b6001818154811061020057600080fd5b90600052602060002090600202016000915090508060000154908060010180546102299061079a565b80601f01602080910402602001604051908101604052809291908181526020018280546102559061079a565b80156102a25780601f10610277576101008083540402835291602001916102a2565b820191906000526020600020905b81548152906001019060200180831161028557829003601f168201915b5050505050905082565b8280546102b89061079a565b90600052602060002090601f0160209004810192826102da5760008555610321565b82601f106102f357805160ff1916838001178555610321565b82800160010185558215610321579182015b82811115610320578251825591602001919060010190610305565b5b50905061032e9190610332565b5090565b5b8082111561034b576000816000905550600101610333565b5090565b6000819050919050565b6103628161034f565b82525050565b600060208201905061037d6000830184610359565b92915050565b6000604051905090565b600080fd5b600080fd5b6103a08161034f565b81146103ab57600080fd5b50565b6000813590506103bd81610397565b92915050565b6000602082840312156103d9576103d861038d565b5b60006103e7848285016103ae565b91505092915050565b600080fd5b600080fd5b6000601f19601f8301169050919050565b7f4e487b7100000000000000000000000000000000000000000000000000000000600052604160045260246000fd5b610443826103fa565b810181811067ffffffffffffffff821117156104625761046161040b565b5b80604052505050565b6000610475610383565b9050610481828261043a565b919050565b600067ffffffffffffffff8211156104a1576104a061040b565b5b6104aa826103fa565b9050602081019050919050565b82818337600083830152505050565b60006104d96104d484610486565b61046b565b9050828152602081018484840111156104f5576104f46103f5565b5b6105008482856104b7565b509392505050565b600082601f83011261051d5761051c6103f0565b5b813561052d8482602086016104c6565b91505092915050565b6000806040838503121561054d5761054c61038d565b5b600083013567ffffffffffffffff81111561056b5761056a610392565b5b61057785828601610508565b9250506020610588858286016103ae565b9150509250929050565b6000602082840312156105a8576105a761038d565b5b600082013567ffffffffffffffff8111156105c6576105c5610392565b5b6105d284828501610508565b91505092915050565b600081519050919050565b600082825260208201905092915050565b60005b838110156106155780820151818401526020810190506105fa565b83811115610624576000848401525b50505050565b6000610635826105db565b61063f81856105e6565b935061064f8185602086016105f7565b610658816103fa565b840191505092915050565b60006040820190506106786000830185610359565b818103602083015261068a818461062a565b90509392505050565b7f4e487b7100000000000000000000000000000000000000000000000000000000600052601160045260246000fd5b60006106cd8261034f565b91506106d88361034f565b9250827fffffffffffffffffffffffffffffffffffffffffffffffffffffffffffffffff0382111561070d5761070c610693565b5b828201905092915050565b600081905092915050565b600061072e826105db565b6107388185610718565b93506107488185602086016105f7565b80840191505092915050565b60006107608284610723565b915081905092915050565b7f4e487b7100000000000000000000000000000000000000000000000000000000600052602260045260246000fd5b600060028204905060018216806107b257607f821691505b602082108114156107c6576107c561076b565b5b5091905056fea264697066735822122068cbecf1d997182b92651ca7ec478f2f19318044942e3fee9a280bf23bca2d0664736f6c63430008080033a264697066735822122086dd1d8cf80504981b6f726fd98786bb426658f1618fed98bcd895a6bf120a5f64736f6c63430008080033",
  "devdoc": {
    "kind": "dev",
    "methods": {},
    "version": 1
  },
  "userdoc": {
    "kind": "user",
    "methods": {},
    "version": 1
  },
  "storageLayout": {
    "storage": [
      {
        "astId": 664,
        "contract": "contracts/StorageFactory.sol:StorageFactory",
        "label": "simpleStorageArray",
        "offset": 0,
        "slot": "0",
        "type": "t_array(t_contract(ExtraStorage)329)dyn_storage"
      }
    ],
    "types": {
      "t_array(t_contract(ExtraStorage)329)dyn_storage": {
        "base": "t_contract(ExtraStorage)329",
        "encoding": "dynamic_array",
        "label": "contract ExtraStorage[]",
        "numberOfBytes": "32"
      },
      "t_contract(ExtraStorage)329": {
        "encoding": "inplace",
        "label": "contract ExtraStorage",
        "numberOfBytes": "20"
      }
    }
  }
}